{
  "contractName": "MLF",
  "abi": [
    {
      "anonymous": false,
      "inputs": [
        {
          "indexed": true,
          "internalType": "address",
          "name": "approvedPayee",
          "type": "address"
        }
      ],
      "name": "Approved",
      "type": "event"
    },
    {
      "anonymous": false,
      "inputs": [
        {
          "indexed": true,
          "internalType": "address",
          "name": "payee",
          "type": "address"
        },
        {
          "indexed": false,
          "internalType": "uint256",
          "name": "weiAmount",
          "type": "uint256"
        }
      ],
      "name": "Deposited",
      "type": "event"
    },
    {
      "anonymous": false,
      "inputs": [
        {
          "indexed": true,
          "internalType": "address",
          "name": "payee",
          "type": "address"
        },
        {
          "indexed": false,
          "internalType": "uint256",
          "name": "weiAmount",
          "type": "uint256"
        }
      ],
      "name": "Repaid",
      "type": "event"
    },
    {
      "anonymous": false,
      "inputs": [
        {
          "indexed": true,
          "internalType": "address",
          "name": "payee",
          "type": "address"
        },
        {
          "indexed": false,
          "internalType": "uint256",
          "name": "weiAmount",
          "type": "uint256"
        }
      ],
      "name": "Withdrawn",
      "type": "event"
    },
    {
      "constant": true,
      "inputs": [
        {
          "internalType": "uint256",
          "name": "",
          "type": "uint256"
        }
      ],
      "name": "owners",
      "outputs": [
        {
          "internalType": "address",
          "name": "",
          "type": "address"
        }
      ],
      "payable": false,
      "stateMutability": "view",
      "type": "function"
    },
    {
      "constant": false,
      "inputs": [
        {
          "internalType": "uint8",
          "name": "index",
          "type": "uint8"
        },
        {
          "internalType": "address",
          "name": "_owner",
          "type": "address"
        }
      ],
      "name": "setOwner",
      "outputs": [],
      "payable": false,
      "stateMutability": "nonpayable",
      "type": "function"
    },
    {
      "constant": false,
      "inputs": [
        {
          "internalType": "address",
          "name": "_owner1",
          "type": "address"
        }
      ],
      "name": "initialize",
      "outputs": [],
      "payable": false,
      "stateMutability": "nonpayable",
      "type": "function"
    },
    {
      "constant": false,
      "inputs": [],
      "name": "deposit",
      "outputs": [],
      "payable": true,
      "stateMutability": "payable",
      "type": "function"
    },
    {
      "constant": false,
      "inputs": [],
      "name": "withdraw",
      "outputs": [],
      "payable": false,
      "stateMutability": "nonpayable",
      "type": "function"
    },
    {
      "constant": true,
      "inputs": [],
      "name": "getBalance",
      "outputs": [
        {
          "internalType": "uint256",
          "name": "",
          "type": "uint256"
        }
      ],
      "payable": false,
      "stateMutability": "view",
      "type": "function"
    },
    {
      "constant": false,
      "inputs": [
        {
          "internalType": "uint256",
          "name": "borrowAmount",
          "type": "uint256"
        },
        {
          "internalType": "uint16",
          "name": "interest",
          "type": "uint16"
        },
        {
          "internalType": "uint16",
          "name": "loanPeriod",
          "type": "uint16"
        }
      ],
      "name": "applyLoan",
      "outputs": [],
      "payable": false,
      "stateMutability": "nonpayable",
      "type": "function"
    },
    {
      "constant": false,
      "inputs": [
        {
          "internalType": "address",
          "name": "borrower",
          "type": "address"
        }
      ],
      "name": "approveLoan",
      "outputs": [],
      "payable": false,
      "stateMutability": "nonpayable",
      "type": "function"
    },
    {
      "constant": false,
      "inputs": [
        {
          "internalType": "address",
          "name": "borrower",
          "type": "address"
        }
      ],
      "name": "clearLoan",
      "outputs": [],
      "payable": false,
      "stateMutability": "nonpayable",
      "type": "function"
    },
    {
      "constant": false,
      "inputs": [],
      "name": "payLoan",
      "outputs": [],
      "payable": true,
      "stateMutability": "payable",
      "type": "function"
    },
    {
      "constant": true,
      "inputs": [
        {
          "internalType": "address",
          "name": "borrower",
          "type": "address"
        }
      ],
      "name": "getLoan",
      "outputs": [
        {
          "components": [
            {
              "internalType": "uint256",
              "name": "loanTimestamp",
              "type": "uint256"
            },
            {
              "internalType": "uint16",
              "name": "loanPeriod",
              "type": "uint16"
            },
            {
              "internalType": "uint16",
              "name": "interest",
              "type": "uint16"
            },
            {
              "internalType": "bool",
              "name": "approved",
              "type": "bool"
            },
            {
              "internalType": "uint256",
              "name": "dateWithdrawn",
              "type": "uint256"
            },
            {
              "internalType": "address",
              "name": "approvingOfficer",
              "type": "address"
            },
            {
              "internalType": "uint256",
              "name": "borrowAmount",
              "type": "uint256"
            },
            {
              "internalType": "uint256",
              "name": "repayAmount",
              "type": "uint256"
            }
          ],
          "internalType": "struct MLF.LoanInfo",
          "name": "result",
          "type": "tuple"
        }
      ],
      "payable": false,
      "stateMutability": "view",
      "type": "function"
    }
  ],
  "bytecode": "0x608060405234801561001057600080fd5b50611aa3806100206000396000f3fe60806040526004361061009c5760003560e01c8063ac64036111610064578063ac64036114610167578063c4d66de814610190578063c95f0d04146101b9578063d0e30db0146101e2578063e5369961146101ec578063fbbf3d4e146102155761009c565b8063025e7c27146100a157806312065fe0146100de57806333481fc9146101095780633ccfd60b14610146578063472eb03d1461015d575b600080fd5b3480156100ad57600080fd5b506100c860048036036100c39190810190611372565b61023e565b6040516100d591906117cd565b60405180910390f35b3480156100ea57600080fd5b506100f3610271565b6040516101009190611926565b60405180910390f35b34801561011557600080fd5b50610130600480360361012b9190810190611349565b610279565b60405161013d919061190a565b60405180910390f35b34801561015257600080fd5b5061015b6103ac565b005b6101656106c2565b005b34801561017357600080fd5b5061018e60048036036101899190810190611349565b6107fa565b005b34801561019c57600080fd5b506101b760048036036101b29190810190611349565b6108f6565b005b3480156101c557600080fd5b506101e060048036036101db919081019061139b565b610a2e565b005b6101ea610c49565b005b3480156101f857600080fd5b50610213600480360361020e91908101906113ea565b610c99565b005b34801561022157600080fd5b5061023c60048036036102379190810190611349565b610ddc565b005b6033816003811061024b57fe5b016000915054906101000a900473ffffffffffffffffffffffffffffffffffffffff1681565b600047905090565b610281611290565b603660008373ffffffffffffffffffffffffffffffffffffffff1673ffffffffffffffffffffffffffffffffffffffff16815260200190815260200160002060405180610100016040529081600082015481526020016001820160009054906101000a900461ffff1661ffff1661ffff1681526020016001820160029054906101000a900461ffff1661ffff1661ffff1681526020016001820160049054906101000a900460ff16151515158152602001600282015481526020016003820160009054906101000a900473ffffffffffffffffffffffffffffffffffffffff1673ffffffffffffffffffffffffffffffffffffffff1673ffffffffffffffffffffffffffffffffffffffff168152602001600482015481526020016005820154815250509050919050565b603660003373ffffffffffffffffffffffffffffffffffffffff1673ffffffffffffffffffffffffffffffffffffffff16815260200190815260200160002060010160049054906101000a900460ff1661043b576040517f08c379a00000000000000000000000000000000000000000000000000000000081526004016104329061182a565b60405180910390fd5b6000603660003373ffffffffffffffffffffffffffffffffffffffff1673ffffffffffffffffffffffffffffffffffffffff16815260200190815260200160002060040154116104c0576040517f08c379a00000000000000000000000000000000000000000000000000000000081526004016104b7906118ea565b60405180910390fd5b600073ffffffffffffffffffffffffffffffffffffffff166104e0610fef565b73ffffffffffffffffffffffffffffffffffffffff161415806105375750600073ffffffffffffffffffffffffffffffffffffffff1661051e611026565b73ffffffffffffffffffffffffffffffffffffffff1614155b806105765750600073ffffffffffffffffffffffffffffffffffffffff1661055d61105d565b73ffffffffffffffffffffffffffffffffffffffff1614155b6105b5576040517f08c379a00000000000000000000000000000000000000000000000000000000081526004016105ac906118aa565b60405180910390fd5b6000603660003373ffffffffffffffffffffffffffffffffffffffff1673ffffffffffffffffffffffffffffffffffffffff168152602001908152602001600020905060008160040154905061061881836004015461109490919063ffffffff16565b82600401819055504282600201819055503373ffffffffffffffffffffffffffffffffffffffff166108fc829081150290604051600060405180830381858888f1935050505015801561066f573d6000803e3d6000fd5b503373ffffffffffffffffffffffffffffffffffffffff167f7084f5476618d8e60b11ef0d7d3f06914655adb8793e28ff7f018d4c76d505d5826040516106b69190611926565b60405180910390a25050565b6000603660003373ffffffffffffffffffffffffffffffffffffffff1673ffffffffffffffffffffffffffffffffffffffff1681526020019081526020016000206004015411610747576040517f08c379a000000000000000000000000000000000000000000000000000000000815260040161073e9061186a565b60405180910390fd5b6000603660003373ffffffffffffffffffffffffffffffffffffffff1673ffffffffffffffffffffffffffffffffffffffff16815260200190815260200160002090506107a13482600501546110de90919063ffffffff16565b81600501819055503373ffffffffffffffffffffffffffffffffffffffff167f0516911bcc3a0a7412a44601057c0a0a1ec628bde049a84284bc428866534488346040516107ef9190611926565b60405180910390a250565b610802610fef565b73ffffffffffffffffffffffffffffffffffffffff163373ffffffffffffffffffffffffffffffffffffffff16148061086d575061083e611026565b73ffffffffffffffffffffffffffffffffffffffff163373ffffffffffffffffffffffffffffffffffffffff16145b806108aa575061087b61105d565b73ffffffffffffffffffffffffffffffffffffffff163373ffffffffffffffffffffffffffffffffffffffff16145b6108e9576040517f08c379a00000000000000000000000000000000000000000000000000000000081526004016108e09061184a565b60405180910390fd5b6108f33382611133565b50565b600060019054906101000a900460ff1680610915575061091461121e565b5b8061092c57506000809054906101000a900460ff16155b61096b576040517f08c379a00000000000000000000000000000000000000000000000000000000081526004016109629061188a565b60405180910390fd5b60008060019054906101000a900460ff1615905080156109bb576001600060016101000a81548160ff02191690831515021790555060016000806101000a81548160ff0219169083151502179055505b8160336000600381106109ca57fe5b0160006101000a81548173ffffffffffffffffffffffffffffffffffffffff021916908373ffffffffffffffffffffffffffffffffffffffff1602179055508015610a2a5760008060016101000a81548160ff0219169083151502179055505b5050565b6000603660003373ffffffffffffffffffffffffffffffffffffffff1673ffffffffffffffffffffffffffffffffffffffff1681526020019081526020016000206004015414610ab3576040517f08c379a0000000000000000000000000000000000000000000000000000000008152600401610aaa906118ca565b60405180910390fd5b600073ffffffffffffffffffffffffffffffffffffffff16610ad3610fef565b73ffffffffffffffffffffffffffffffffffffffff16141580610b2a5750600073ffffffffffffffffffffffffffffffffffffffff16610b11611026565b73ffffffffffffffffffffffffffffffffffffffff1614155b80610b695750600073ffffffffffffffffffffffffffffffffffffffff16610b5061105d565b73ffffffffffffffffffffffffffffffffffffffff1614155b610ba8576040517f08c379a0000000000000000000000000000000000000000000000000000000008152600401610b9f906118aa565b60405180910390fd5b6000603660003373ffffffffffffffffffffffffffffffffffffffff1673ffffffffffffffffffffffffffffffffffffffff1681526020019081526020016000209050838160040181905550828160010160026101000a81548161ffff021916908361ffff160217905550818160010160006101000a81548161ffff021916908361ffff160217905550610c43610c3d610fef565b33611133565b50505050565b3373ffffffffffffffffffffffffffffffffffffffff167f2da466a7b24304f47e87fa2e1e5a81b9831ce54fec19055ce277ca2f39ba42c434604051610c8f9190611926565b60405180910390a2565b610ca1610fef565b73ffffffffffffffffffffffffffffffffffffffff163373ffffffffffffffffffffffffffffffffffffffff161480610d0c5750610cdd611026565b73ffffffffffffffffffffffffffffffffffffffff163373ffffffffffffffffffffffffffffffffffffffff16145b80610d495750610d1a61105d565b73ffffffffffffffffffffffffffffffffffffffff163373ffffffffffffffffffffffffffffffffffffffff16145b610d88576040517f08c379a0000000000000000000000000000000000000000000000000000000008152600401610d7f9061184a565b60405180910390fd5b8060338360ff1660038110610d9957fe5b0160006101000a81548173ffffffffffffffffffffffffffffffffffffffff021916908373ffffffffffffffffffffffffffffffffffffffff1602179055505050565b610de4610fef565b73ffffffffffffffffffffffffffffffffffffffff163373ffffffffffffffffffffffffffffffffffffffff161480610e4f5750610e20611026565b73ffffffffffffffffffffffffffffffffffffffff163373ffffffffffffffffffffffffffffffffffffffff16145b80610e8c5750610e5d61105d565b73ffffffffffffffffffffffffffffffffffffffff163373ffffffffffffffffffffffffffffffffffffffff16145b610ecb576040517f08c379a0000000000000000000000000000000000000000000000000000000008152600401610ec29061184a565b60405180910390fd5b610ed3611290565b80603660008473ffffffffffffffffffffffffffffffffffffffff1673ffffffffffffffffffffffffffffffffffffffff1681526020019081526020016000206000820151816000015560208201518160010160006101000a81548161ffff021916908361ffff16021790555060408201518160010160026101000a81548161ffff021916908361ffff16021790555060608201518160010160046101000a81548160ff0219169083151502179055506080820151816002015560a08201518160030160006101000a81548173ffffffffffffffffffffffffffffffffffffffff021916908373ffffffffffffffffffffffffffffffffffffffff16021790555060c0820151816004015560e082015181600501559050505050565b60006033600060038110610fff57fe5b0160009054906101000a900473ffffffffffffffffffffffffffffffffffffffff16905090565b6000603360016003811061103657fe5b0160009054906101000a900473ffffffffffffffffffffffffffffffffffffffff16905090565b6000603360026003811061106d57fe5b0160009054906101000a900473ffffffffffffffffffffffffffffffffffffffff16905090565b60006110d683836040518060400160405280601e81526020017f536166654d6174683a207375627472616374696f6e206f766572666c6f770000815250611235565b905092915050565b600080828401905083811015611129576040517f08c379a00000000000000000000000000000000000000000000000000000000081526004016111209061180a565b60405180910390fd5b8091505092915050565b6000603660008373ffffffffffffffffffffffffffffffffffffffff1673ffffffffffffffffffffffffffffffffffffffff168152602001908152602001600020905060018160010160046101000a81548160ff021916908315150217905550828160030160006101000a81548173ffffffffffffffffffffffffffffffffffffffff021916908373ffffffffffffffffffffffffffffffffffffffff1602179055508173ffffffffffffffffffffffffffffffffffffffff167f5d91bd0cecc45fef102af61de92c5462fadc884a5ce9d21c15e8a85198f2349e60405160405180910390a2505050565b6000803090506000813b9050600081149250505090565b600083831115829061127d576040517f08c379a000000000000000000000000000000000000000000000000000000000815260040161127491906117e8565b60405180910390fd5b5060008385039050809150509392505050565b60405180610100016040528060008152602001600061ffff168152602001600061ffff16815260200160001515815260200160008152602001600073ffffffffffffffffffffffffffffffffffffffff16815260200160008152602001600081525090565b60008135905061130481611a04565b92915050565b60008135905061131981611a1b565b92915050565b60008135905061132e81611a32565b92915050565b60008135905061134381611a49565b92915050565b60006020828403121561135b57600080fd5b6000611369848285016112f5565b91505092915050565b60006020828403121561138457600080fd5b60006113928482850161131f565b91505092915050565b6000806000606084860312156113b057600080fd5b60006113be8682870161131f565b93505060206113cf8682870161130a565b92505060406113e08682870161130a565b9150509250925092565b600080604083850312156113fd57600080fd5b600061140b85828601611334565b925050602061141c858286016112f5565b9150509250929050565b61142f8161195d565b82525050565b61143e8161195d565b82525050565b61144d8161196f565b82525050565b600061145e82611941565b611468818561194c565b93506114788185602086016119c0565b611481816119f3565b840191505092915050565b6000611499601b8361194c565b91507f536166654d6174683a206164646974696f6e206f766572666c6f7700000000006000830152602082019050919050565b60006114d9601b8361194c565b91507f4c6f616e20686173206e6f74206265656e20617070726f7665642100000000006000830152602082019050919050565b600061151960188361194c565b91507f6d73672e73656e646572206973206e6f74206f776e65722100000000000000006000830152602082019050919050565b600061155960378361194c565b91507f426f72726f77657220646f6573206e6f74206861766520616e206f757473746160008301527f6e64696e67206c6f616e206170706c69636174696f6e210000000000000000006020830152604082019050919050565b60006115bf602e8361194c565b91507f436f6e747261637420696e7374616e63652068617320616c726561647920626560008301527f656e20696e697469616c697a65640000000000000000000000000000000000006020830152604082019050919050565b6000611625601d8361194c565b91507f4e6f6e65206f6620746865206f776e657273206172652076616c6964210000006000830152602082019050919050565b6000611665601e8361194c565b91507f426f72726f77657220686173206f75747374616e64696e67206c6f616e2100006000830152602082019050919050565b60006116a5602d8361194c565b91507f4c6f616e20616d6f756e74206973206c6172676572207468616e20617661696c60008301527f61626c652062616c616e636521000000000000000000000000000000000000006020830152604082019050919050565b6101008201600082015161171560008501826117af565b50602082015161172860208501826117a0565b50604082015161173b60408501826117a0565b50606082015161174e6060850182611444565b50608082015161176160808501826117af565b5060a082015161177460a0850182611426565b5060c082015161178760c08501826117af565b5060e082015161179a60e08501826117af565b50505050565b6117a98161197b565b82525050565b6117b8816119a9565b82525050565b6117c7816119a9565b82525050565b60006020820190506117e26000830184611435565b92915050565b600060208201905081810360008301526118028184611453565b905092915050565b600060208201905081810360008301526118238161148c565b9050919050565b60006020820190508181036000830152611843816114cc565b9050919050565b600060208201905081810360008301526118638161150c565b9050919050565b600060208201905081810360008301526118838161154c565b9050919050565b600060208201905081810360008301526118a3816115b2565b9050919050565b600060208201905081810360008301526118c381611618565b9050919050565b600060208201905081810360008301526118e381611658565b9050919050565b6000602082019050818103600083015261190381611698565b9050919050565b60006101008201905061192060008301846116fe565b92915050565b600060208201905061193b60008301846117be565b92915050565b600081519050919050565b600082825260208201905092915050565b600061196882611989565b9050919050565b60008115159050919050565b600061ffff82169050919050565b600073ffffffffffffffffffffffffffffffffffffffff82169050919050565b6000819050919050565b600060ff82169050919050565b60005b838110156119de5780820151818401526020810190506119c3565b838111156119ed576000848401525b50505050565b6000601f19601f8301169050919050565b611a0d8161195d565b8114611a1857600080fd5b50565b611a248161197b565b8114611a2f57600080fd5b50565b611a3b816119a9565b8114611a4657600080fd5b50565b611a52816119b3565b8114611a5d57600080fd5b5056fea365627a7a723158203ec2ef7fb1d79932b90f09314032064bf2a00e67389e6a7d4a7a465d892774746c6578706572696d656e74616cf564736f6c63430005100040",
  "source": "// Team MLF\r\n// SPDX-License-Identifier: UNLICENSED\r\npragma solidity >= 0.5.11 <= 0.8.2;\r\npragma experimental ABIEncoderV2;\r\n\r\nimport '@openzeppelin/contracts/math/SafeMath.sol';\r\nimport '@openzeppelin/upgrades/contracts/Initializable.sol';\r\n\r\ncontract MLF is Initializable {\r\n\r\n    using SafeMath for uint256;\r\n\r\n    event Deposited(address indexed payee, uint256 weiAmount);\r\n    event Withdrawn(address indexed payee, uint256 weiAmount);\r\n    event Repaid(address indexed payee, uint256 weiAmount);\r\n    event Approved(address indexed approvedPayee);\r\n\r\n    struct LoanInfo {\r\n        uint256 loanTimestamp;\r\n        uint16 loanPeriod;\r\n// interest charged for the loan period. Accounting for the possibility that the lowest interest rate is 0.1%, so\r\n// the value in interest field should be multiplied by 10?\r\n        uint16 interest;         \r\n        bool approved;           // default is false, which means not approved\r\n        uint256 dateWithdrawn;\r\n        address approvingOfficer;\r\n        uint256 borrowAmount;\r\n        uint256 repayAmount;\r\n    }\r\n    \r\n    address[3] public owners;\r\n    mapping(address => LoanInfo) loanInfo;\r\n\r\n    modifier noOutstandingLoan() {\r\n        require(loanInfo[msg.sender].borrowAmount == 0, \"Borrower has outstanding loan!\");\r\n        _;\r\n    } \r\n\r\n    modifier onlyApproved() {\r\n        require(loanInfo[msg.sender].approved, \"Loan has not been approved!\");\r\n        _;\r\n    }\r\n\r\n    modifier validBorrower() {\r\n        require(loanInfo[msg.sender].borrowAmount > 0, \r\n          \"Borrower does not have an outstanding loan application!\");\r\n        _;\r\n    }\r\n\r\n    function owner1() internal view returns (address result) {\r\n        result = owners[0];\r\n    }\r\n\r\n    function owner2() internal view returns (address result) {\r\n        result = owners[1];\r\n    }\r\n\r\n    function owner3() internal view returns (address result) {\r\n        result = owners[2];\r\n    }\r\n\r\n    modifier validOwners() {\r\n        require(\r\n            owner1() != address(0x0) || \r\n            owner2() != address(0x0) || \r\n            owner3() != address(0x0),\r\n          \"None of the owners are valid!\");\r\n        _;\r\n    }\r\n\r\n    modifier onlyOwner() {\r\n        require(msg.sender == owner1() || msg.sender == owner2() || msg.sender == owner3(), \r\n          \"msg.sender is not owner!\");\r\n        _;\r\n    }\r\n\r\n    modifier sufficientBalance() {\r\n        require(loanInfo[msg.sender].borrowAmount > 0, \r\n          \"Loan amount is larger than available balance!\");\r\n        _;\r\n    }\r\n\r\n    function setOwner(uint8 index, address _owner) public onlyOwner {\r\n        owners[index] = _owner;\r\n    }\r\n\r\n    function initialize(address _owner1) public initializer {\r\n        owners[0] = _owner1;        \r\n    }    \r\n    \r\n    function deposit() public payable {\r\n        emit Deposited(msg.sender, msg.value);\r\n    }\r\n\r\n    // Called by the person borrowing the money\r\n    // Checks that the loan has been approved.\r\n    // Checks that there is sufficient balance.\r\n    function withdraw() public onlyApproved sufficientBalance validOwners {\r\n        LoanInfo storage localLoanInfo = loanInfo[msg.sender];\r\n        uint256 loanAmount = localLoanInfo.borrowAmount;\r\n        localLoanInfo.borrowAmount = localLoanInfo.borrowAmount.sub(loanAmount);\r\n        localLoanInfo.dateWithdrawn = block.timestamp;\r\n        msg.sender.transfer(loanAmount);\r\n        emit Withdrawn(msg.sender, loanAmount);\r\n    }\r\n\r\n    function getBalance() public view returns (uint256) {\r\n        return address(this).balance;\r\n    }\r\n\r\n    // loanPeriod is in terms of months\r\n    // function is called by the borrower\r\n    function applyLoan(uint256 borrowAmount, uint16 interest, uint16 loanPeriod) public \r\n      noOutstandingLoan validOwners {\r\n        LoanInfo storage localLoanInfo = loanInfo[msg.sender];\r\n        localLoanInfo.borrowAmount = borrowAmount;\r\n        localLoanInfo.interest = interest;\r\n        localLoanInfo.loanPeriod = loanPeriod;\r\n\r\n        // automatic loan approval due to time constraint\r\n        // This shouldn't be automatic\r\n        _approveLoan(owner1(), msg.sender);\r\n    }\r\n\r\n    // Approves loan for the borrower, with the approving officer being msgSender\r\n    function _approveLoan(address msgSender, address borrower) internal {\r\n        LoanInfo storage localLoanInfo = loanInfo[borrower];\r\n        localLoanInfo.approved = true;\r\n        localLoanInfo.approvingOfficer = msgSender;\r\n        emit Approved(borrower);\r\n    }\r\n\r\n    // Called by one of the owners, approves the loan for the specified borrower\r\n    function approveLoan(address borrower) public onlyOwner {\r\n        _approveLoan(msg.sender, borrower);\r\n    }\r\n\r\n    // clears a loan, to be called by one of the owners\r\n    function clearLoan(address borrower) public onlyOwner {\r\n        LoanInfo memory localLoanInfo;\r\n        loanInfo[borrower] = localLoanInfo;\r\n    }\r\n\r\n    // Called by the borrower\r\n    // Ensures that the borrower has an outstanding loan.\r\n    // Amount repaid is in msg.value\r\n    function payLoan() public payable validBorrower {\r\n        LoanInfo storage localLoanInfo = loanInfo[msg.sender];\r\n        localLoanInfo.repayAmount = localLoanInfo.repayAmount.add(msg.value);\r\n        emit Repaid(msg.sender, msg.value);\r\n    }\r\n\r\n    function getLoan(address borrower) public view returns (LoanInfo memory result) {\r\n        result = loanInfo[borrower];\r\n    }\r\n\r\n}",
  "sourcePath": "D:/Blog/NodeApps/mlf-2/contracts/MLF.sol",
  "compiler": {
    "name": "solc",
    "version": "0.5.16+commit.9c3226ce.Emscripten.clang"
  },
  "schemaVersion": "3.3.4",
  "updatedAt": "2021-03-22T16:36:48.814Z",
  "networkType": "ethereum",
  "devdoc": {
    "methods": {}
  },
  "userdoc": {
    "methods": {}
  }
}