{
  "contractName": "MLF",
  "abi": [
    {
      "anonymous": false,
      "inputs": [
        {
          "indexed": true,
          "internalType": "address",
          "name": "approvedPayee",
          "type": "address"
        }
      ],
      "name": "Approved",
      "type": "event"
    },
    {
      "anonymous": false,
      "inputs": [
        {
          "indexed": true,
          "internalType": "address",
          "name": "payee",
          "type": "address"
        },
        {
          "indexed": false,
          "internalType": "uint256",
          "name": "weiAmount",
          "type": "uint256"
        }
      ],
      "name": "Deposited",
      "type": "event"
    },
    {
      "anonymous": false,
      "inputs": [
        {
          "indexed": true,
          "internalType": "address",
          "name": "payee",
          "type": "address"
        },
        {
          "indexed": false,
          "internalType": "uint256",
          "name": "weiAmount",
          "type": "uint256"
        }
      ],
      "name": "Repaid",
      "type": "event"
    },
    {
      "anonymous": false,
      "inputs": [
        {
          "indexed": true,
          "internalType": "address",
          "name": "payee",
          "type": "address"
        },
        {
          "indexed": false,
          "internalType": "uint256",
          "name": "weiAmount",
          "type": "uint256"
        }
      ],
      "name": "Withdrawn",
      "type": "event"
    },
    {
      "constant": true,
      "inputs": [
        {
          "internalType": "uint256",
          "name": "",
          "type": "uint256"
        }
      ],
      "name": "owners",
      "outputs": [
        {
          "internalType": "address",
          "name": "",
          "type": "address"
        }
      ],
      "payable": false,
      "stateMutability": "view",
      "type": "function"
    },
    {
      "constant": false,
      "inputs": [
        {
          "internalType": "uint8",
          "name": "index",
          "type": "uint8"
        },
        {
          "internalType": "address",
          "name": "_owner",
          "type": "address"
        }
      ],
      "name": "setOwner",
      "outputs": [],
      "payable": false,
      "stateMutability": "nonpayable",
      "type": "function"
    },
    {
      "constant": false,
      "inputs": [
        {
          "internalType": "address",
          "name": "_owner1",
          "type": "address"
        }
      ],
      "name": "initialize",
      "outputs": [],
      "payable": false,
      "stateMutability": "nonpayable",
      "type": "function"
    },
    {
      "constant": false,
      "inputs": [],
      "name": "deposit",
      "outputs": [],
      "payable": true,
      "stateMutability": "payable",
      "type": "function"
    },
    {
      "constant": false,
      "inputs": [],
      "name": "withdraw",
      "outputs": [],
      "payable": false,
      "stateMutability": "nonpayable",
      "type": "function"
    },
    {
      "constant": true,
      "inputs": [],
      "name": "getBalance",
      "outputs": [
        {
          "internalType": "uint256",
          "name": "",
          "type": "uint256"
        }
      ],
      "payable": false,
      "stateMutability": "view",
      "type": "function"
    },
    {
      "constant": false,
      "inputs": [
        {
          "internalType": "uint256",
          "name": "borrowAmount",
          "type": "uint256"
        },
        {
          "internalType": "uint16",
          "name": "interest",
          "type": "uint16"
        },
        {
          "internalType": "uint16",
          "name": "loanPeriod",
          "type": "uint16"
        }
      ],
      "name": "applyLoan",
      "outputs": [],
      "payable": false,
      "stateMutability": "nonpayable",
      "type": "function"
    },
    {
      "constant": false,
      "inputs": [
        {
          "internalType": "address",
          "name": "borrower",
          "type": "address"
        }
      ],
      "name": "approveLoan",
      "outputs": [],
      "payable": false,
      "stateMutability": "nonpayable",
      "type": "function"
    },
    {
      "constant": false,
      "inputs": [
        {
          "internalType": "address",
          "name": "borrower",
          "type": "address"
        }
      ],
      "name": "clearLoan",
      "outputs": [],
      "payable": false,
      "stateMutability": "nonpayable",
      "type": "function"
    },
    {
      "constant": false,
      "inputs": [],
      "name": "payLoan",
      "outputs": [],
      "payable": true,
      "stateMutability": "payable",
      "type": "function"
    },
    {
      "constant": true,
      "inputs": [
        {
          "internalType": "address",
          "name": "borrower",
          "type": "address"
        }
      ],
      "name": "getLoan",
      "outputs": [
        {
          "components": [
            {
              "internalType": "uint256",
              "name": "loanTimestamp",
              "type": "uint256"
            },
            {
              "internalType": "uint16",
              "name": "loanPeriod",
              "type": "uint16"
            },
            {
              "internalType": "uint16",
              "name": "interest",
              "type": "uint16"
            },
            {
              "internalType": "bool",
              "name": "approved",
              "type": "bool"
            },
            {
              "internalType": "uint256",
              "name": "dateWithdrawn",
              "type": "uint256"
            },
            {
              "internalType": "address",
              "name": "approvingOfficer",
              "type": "address"
            },
            {
              "internalType": "uint256",
              "name": "borrowAmount",
              "type": "uint256"
            }
          ],
          "internalType": "struct MLF.LoanInfo",
          "name": "result",
          "type": "tuple"
        }
      ],
      "payable": false,
      "stateMutability": "view",
      "type": "function"
    }
  ],
  "bytecode": "0x608060405234801561001057600080fd5b506119a4806100206000396000f3fe60806040526004361061009c5760003560e01c8063ac64036111610064578063ac64036114610167578063c4d66de814610190578063c95f0d04146101b9578063d0e30db0146101e2578063e5369961146101ec578063fbbf3d4e146102155761009c565b8063025e7c27146100a157806312065fe0146100de57806333481fc9146101095780633ccfd60b14610146578063472eb03d1461015d575b600080fd5b3480156100ad57600080fd5b506100c860048036036100c391908101906112e8565b61023e565b6040516100d591906116ef565b60405180910390f35b3480156100ea57600080fd5b506100f3610271565b6040516101009190611827565b60405180910390f35b34801561011557600080fd5b50610130600480360361012b91908101906112bf565b610279565b60405161013d919061180c565b60405180910390f35b34801561015257600080fd5b5061015b6103a1565b005b61016561069f565b005b34801561017357600080fd5b5061018e600480360361018991908101906112bf565b6107d7565b005b34801561019c57600080fd5b506101b760048036036101b291908101906112bf565b6108d3565b005b3480156101c557600080fd5b506101e060048036036101db9190810190611311565b610a0b565b005b6101ea610c26565b005b3480156101f857600080fd5b50610213600480360361020e9190810190611360565b610c76565b005b34801561022157600080fd5b5061023c600480360361023791908101906112bf565b610db9565b005b6033816003811061024b57fe5b016000915054906101000a900473ffffffffffffffffffffffffffffffffffffffff1681565b600047905090565b61028161120e565b603660008373ffffffffffffffffffffffffffffffffffffffff1673ffffffffffffffffffffffffffffffffffffffff1681526020019081526020016000206040518060e0016040529081600082015481526020016001820160009054906101000a900461ffff1661ffff1661ffff1681526020016001820160029054906101000a900461ffff1661ffff1661ffff1681526020016001820160049054906101000a900460ff16151515158152602001600282015481526020016003820160009054906101000a900473ffffffffffffffffffffffffffffffffffffffff1673ffffffffffffffffffffffffffffffffffffffff1673ffffffffffffffffffffffffffffffffffffffff1681526020016004820154815250509050919050565b603660003373ffffffffffffffffffffffffffffffffffffffff1673ffffffffffffffffffffffffffffffffffffffff16815260200190815260200160002060010160049054906101000a900460ff16610430576040517f08c379a00000000000000000000000000000000000000000000000000000000081526004016104279061172c565b60405180910390fd5b610438610271565b603660003373ffffffffffffffffffffffffffffffffffffffff1673ffffffffffffffffffffffffffffffffffffffff1681526020019081526020016000206004015411156104bc576040517f08c379a00000000000000000000000000000000000000000000000000000000081526004016104b3906117ec565b60405180910390fd5b600073ffffffffffffffffffffffffffffffffffffffff166104dc610fc2565b73ffffffffffffffffffffffffffffffffffffffff161415806105335750600073ffffffffffffffffffffffffffffffffffffffff1661051a610ff9565b73ffffffffffffffffffffffffffffffffffffffff1614155b806105725750600073ffffffffffffffffffffffffffffffffffffffff16610559611030565b73ffffffffffffffffffffffffffffffffffffffff1614155b6105b1576040517f08c379a00000000000000000000000000000000000000000000000000000000081526004016105a8906117ac565b60405180910390fd5b6000603660003373ffffffffffffffffffffffffffffffffffffffff1673ffffffffffffffffffffffffffffffffffffffff16815260200190815260200160002090506000816004015490504282600201819055503373ffffffffffffffffffffffffffffffffffffffff166108fc829081150290604051600060405180830381858888f1935050505015801561064c573d6000803e3d6000fd5b503373ffffffffffffffffffffffffffffffffffffffff167f7084f5476618d8e60b11ef0d7d3f06914655adb8793e28ff7f018d4c76d505d5826040516106939190611827565b60405180910390a25050565b6000603660003373ffffffffffffffffffffffffffffffffffffffff1673ffffffffffffffffffffffffffffffffffffffff1681526020019081526020016000206004015411610724576040517f08c379a000000000000000000000000000000000000000000000000000000000815260040161071b9061176c565b60405180910390fd5b6000603660003373ffffffffffffffffffffffffffffffffffffffff1673ffffffffffffffffffffffffffffffffffffffff168152602001908152602001600020905061077e34826004015461106790919063ffffffff16565b81600401819055503373ffffffffffffffffffffffffffffffffffffffff167f0516911bcc3a0a7412a44601057c0a0a1ec628bde049a84284bc428866534488346040516107cc9190611827565b60405180910390a250565b6107df610fc2565b73ffffffffffffffffffffffffffffffffffffffff163373ffffffffffffffffffffffffffffffffffffffff16148061084a575061081b610ff9565b73ffffffffffffffffffffffffffffffffffffffff163373ffffffffffffffffffffffffffffffffffffffff16145b806108875750610858611030565b73ffffffffffffffffffffffffffffffffffffffff163373ffffffffffffffffffffffffffffffffffffffff16145b6108c6576040517f08c379a00000000000000000000000000000000000000000000000000000000081526004016108bd9061174c565b60405180910390fd5b6108d033826110b1565b50565b600060019054906101000a900460ff16806108f257506108f161119c565b5b8061090957506000809054906101000a900460ff16155b610948576040517f08c379a000000000000000000000000000000000000000000000000000000000815260040161093f9061178c565b60405180910390fd5b60008060019054906101000a900460ff161590508015610998576001600060016101000a81548160ff02191690831515021790555060016000806101000a81548160ff0219169083151502179055505b8160336000600381106109a757fe5b0160006101000a81548173ffffffffffffffffffffffffffffffffffffffff021916908373ffffffffffffffffffffffffffffffffffffffff1602179055508015610a075760008060016101000a81548160ff0219169083151502179055505b5050565b6000603660003373ffffffffffffffffffffffffffffffffffffffff1673ffffffffffffffffffffffffffffffffffffffff1681526020019081526020016000206004015414610a90576040517f08c379a0000000000000000000000000000000000000000000000000000000008152600401610a87906117cc565b60405180910390fd5b600073ffffffffffffffffffffffffffffffffffffffff16610ab0610fc2565b73ffffffffffffffffffffffffffffffffffffffff16141580610b075750600073ffffffffffffffffffffffffffffffffffffffff16610aee610ff9565b73ffffffffffffffffffffffffffffffffffffffff1614155b80610b465750600073ffffffffffffffffffffffffffffffffffffffff16610b2d611030565b73ffffffffffffffffffffffffffffffffffffffff1614155b610b85576040517f08c379a0000000000000000000000000000000000000000000000000000000008152600401610b7c906117ac565b60405180910390fd5b6000603660003373ffffffffffffffffffffffffffffffffffffffff1673ffffffffffffffffffffffffffffffffffffffff1681526020019081526020016000209050838160040181905550828160010160026101000a81548161ffff021916908361ffff160217905550818160010160006101000a81548161ffff021916908361ffff160217905550610c20610c1a610fc2565b336110b1565b50505050565b3373ffffffffffffffffffffffffffffffffffffffff167f2da466a7b24304f47e87fa2e1e5a81b9831ce54fec19055ce277ca2f39ba42c434604051610c6c9190611827565b60405180910390a2565b610c7e610fc2565b73ffffffffffffffffffffffffffffffffffffffff163373ffffffffffffffffffffffffffffffffffffffff161480610ce95750610cba610ff9565b73ffffffffffffffffffffffffffffffffffffffff163373ffffffffffffffffffffffffffffffffffffffff16145b80610d265750610cf7611030565b73ffffffffffffffffffffffffffffffffffffffff163373ffffffffffffffffffffffffffffffffffffffff16145b610d65576040517f08c379a0000000000000000000000000000000000000000000000000000000008152600401610d5c9061174c565b60405180910390fd5b8060338360ff1660038110610d7657fe5b0160006101000a81548173ffffffffffffffffffffffffffffffffffffffff021916908373ffffffffffffffffffffffffffffffffffffffff1602179055505050565b610dc1610fc2565b73ffffffffffffffffffffffffffffffffffffffff163373ffffffffffffffffffffffffffffffffffffffff161480610e2c5750610dfd610ff9565b73ffffffffffffffffffffffffffffffffffffffff163373ffffffffffffffffffffffffffffffffffffffff16145b80610e695750610e3a611030565b73ffffffffffffffffffffffffffffffffffffffff163373ffffffffffffffffffffffffffffffffffffffff16145b610ea8576040517f08c379a0000000000000000000000000000000000000000000000000000000008152600401610e9f9061174c565b60405180910390fd5b610eb061120e565b80603660008473ffffffffffffffffffffffffffffffffffffffff1673ffffffffffffffffffffffffffffffffffffffff1681526020019081526020016000206000820151816000015560208201518160010160006101000a81548161ffff021916908361ffff16021790555060408201518160010160026101000a81548161ffff021916908361ffff16021790555060608201518160010160046101000a81548160ff0219169083151502179055506080820151816002015560a08201518160030160006101000a81548173ffffffffffffffffffffffffffffffffffffffff021916908373ffffffffffffffffffffffffffffffffffffffff16021790555060c082015181600401559050505050565b60006033600060038110610fd257fe5b0160009054906101000a900473ffffffffffffffffffffffffffffffffffffffff16905090565b6000603360016003811061100957fe5b0160009054906101000a900473ffffffffffffffffffffffffffffffffffffffff16905090565b6000603360026003811061104057fe5b0160009054906101000a900473ffffffffffffffffffffffffffffffffffffffff16905090565b60006110a983836040518060400160405280601e81526020017f536166654d6174683a207375627472616374696f6e206f766572666c6f7700008152506111b3565b905092915050565b6000603660008373ffffffffffffffffffffffffffffffffffffffff1673ffffffffffffffffffffffffffffffffffffffff168152602001908152602001600020905060018160010160046101000a81548160ff021916908315150217905550828160030160006101000a81548173ffffffffffffffffffffffffffffffffffffffff021916908373ffffffffffffffffffffffffffffffffffffffff1602179055508173ffffffffffffffffffffffffffffffffffffffff167f5d91bd0cecc45fef102af61de92c5462fadc884a5ce9d21c15e8a85198f2349e60405160405180910390a2505050565b6000803090506000813b9050600081149250505090565b60008383111582906111fb576040517f08c379a00000000000000000000000000000000000000000000000000000000081526004016111f2919061170a565b60405180910390fd5b5060008385039050809150509392505050565b6040518060e0016040528060008152602001600061ffff168152602001600061ffff16815260200160001515815260200160008152602001600073ffffffffffffffffffffffffffffffffffffffff168152602001600081525090565b60008135905061127a81611905565b92915050565b60008135905061128f8161191c565b92915050565b6000813590506112a481611933565b92915050565b6000813590506112b98161194a565b92915050565b6000602082840312156112d157600080fd5b60006112df8482850161126b565b91505092915050565b6000602082840312156112fa57600080fd5b600061130884828501611295565b91505092915050565b60008060006060848603121561132657600080fd5b600061133486828701611295565b935050602061134586828701611280565b925050604061135686828701611280565b9150509250925092565b6000806040838503121561137357600080fd5b6000611381858286016112aa565b92505060206113928582860161126b565b9150509250929050565b6113a58161185e565b82525050565b6113b48161185e565b82525050565b6113c381611870565b82525050565b60006113d482611842565b6113de818561184d565b93506113ee8185602086016118c1565b6113f7816118f4565b840191505092915050565b600061140f601b8361184d565b91507f4c6f616e20686173206e6f74206265656e20617070726f7665642100000000006000830152602082019050919050565b600061144f60188361184d565b91507f6d73672e73656e646572206973206e6f74206f776e65722100000000000000006000830152602082019050919050565b600061148f60378361184d565b91507f426f72726f77657220646f6573206e6f74206861766520616e206f757473746160008301527f6e64696e67206c6f616e206170706c69636174696f6e210000000000000000006020830152604082019050919050565b60006114f5602e8361184d565b91507f436f6e747261637420696e7374616e63652068617320616c726561647920626560008301527f656e20696e697469616c697a65640000000000000000000000000000000000006020830152604082019050919050565b600061155b601d8361184d565b91507f4e6f6e65206f6620746865206f776e657273206172652076616c6964210000006000830152602082019050919050565b600061159b601e8361184d565b91507f426f72726f77657220686173206f75747374616e64696e67206c6f616e2100006000830152602082019050919050565b60006115db602d8361184d565b91507f4c6f616e20616d6f756e74206973206c6172676572207468616e20617661696c60008301527f61626c652062616c616e636521000000000000000000000000000000000000006020830152604082019050919050565b60e08201600082015161164a60008501826116d1565b50602082015161165d60208501826116c2565b50604082015161167060408501826116c2565b50606082015161168360608501826113ba565b50608082015161169660808501826116d1565b5060a08201516116a960a085018261139c565b5060c08201516116bc60c08501826116d1565b50505050565b6116cb8161187c565b82525050565b6116da816118aa565b82525050565b6116e9816118aa565b82525050565b600060208201905061170460008301846113ab565b92915050565b6000602082019050818103600083015261172481846113c9565b905092915050565b6000602082019050818103600083015261174581611402565b9050919050565b6000602082019050818103600083015261176581611442565b9050919050565b6000602082019050818103600083015261178581611482565b9050919050565b600060208201905081810360008301526117a5816114e8565b9050919050565b600060208201905081810360008301526117c58161154e565b9050919050565b600060208201905081810360008301526117e58161158e565b9050919050565b60006020820190508181036000830152611805816115ce565b9050919050565b600060e0820190506118216000830184611634565b92915050565b600060208201905061183c60008301846116e0565b92915050565b600081519050919050565b600082825260208201905092915050565b60006118698261188a565b9050919050565b60008115159050919050565b600061ffff82169050919050565b600073ffffffffffffffffffffffffffffffffffffffff82169050919050565b6000819050919050565b600060ff82169050919050565b60005b838110156118df5780820151818401526020810190506118c4565b838111156118ee576000848401525b50505050565b6000601f19601f8301169050919050565b61190e8161185e565b811461191957600080fd5b50565b6119258161187c565b811461193057600080fd5b50565b61193c816118aa565b811461194757600080fd5b50565b611953816118b4565b811461195e57600080fd5b5056fea365627a7a723158206fa673c58d9ccbaa93ae6b6b6672c973e0a26a95f094b908ed48e277a9a1fd2d6c6578706572696d656e74616cf564736f6c63430005100040",
  "source": "// Team MLF\r\n// SPDX-License-Identifier: UNLICENSED\r\npragma solidity >= 0.5.11 <= 0.8.2;\r\npragma experimental ABIEncoderV2;\r\n\r\nimport '@openzeppelin/contracts/math/SafeMath.sol';\r\nimport '@openzeppelin/upgrades/contracts/Initializable.sol';\r\n\r\ncontract MLF is Initializable {\r\n\r\n    using SafeMath for uint256;\r\n\r\n    event Deposited(address indexed payee, uint256 weiAmount);\r\n    event Withdrawn(address indexed payee, uint256 weiAmount);\r\n    event Repaid(address indexed payee, uint256 weiAmount);\r\n    event Approved(address indexed approvedPayee);\r\n\r\n    struct LoanInfo {\r\n        uint256 loanTimestamp;\r\n        uint16 loanPeriod;\r\n// interest charged for the loan period. Accounting for the possibility that the lowest interest rate is 0.1%, so\r\n// the value in interest field should be multiplied by 10?\r\n        uint16 interest;         \r\n        bool approved;           // default is false, which means not approved\r\n        uint256 dateWithdrawn;\r\n        address approvingOfficer;\r\n        uint256 borrowAmount;\r\n    }\r\n    \r\n    address[3] public owners;\r\n    mapping(address => LoanInfo) loanInfo;\r\n\r\n    modifier noOutstandingLoan() {\r\n        require(loanInfo[msg.sender].borrowAmount == 0, \"Borrower has outstanding loan!\");\r\n        _;\r\n    } \r\n\r\n    modifier onlyApproved() {\r\n        require(loanInfo[msg.sender].approved, \"Loan has not been approved!\");\r\n        _;\r\n    }\r\n\r\n    modifier validBorrower() {\r\n        require(loanInfo[msg.sender].borrowAmount > 0, \r\n          \"Borrower does not have an outstanding loan application!\");\r\n        _;\r\n    }\r\n\r\n    function owner1() internal view returns (address result) {\r\n        result = owners[0];\r\n    }\r\n\r\n    function owner2() internal view returns (address result) {\r\n        result = owners[1];\r\n    }\r\n\r\n    function owner3() internal view returns (address result) {\r\n        result = owners[2];\r\n    }\r\n\r\n    modifier validOwners() {\r\n        require(\r\n            owner1() != address(0x0) || \r\n            owner2() != address(0x0) || \r\n            owner3() != address(0x0),\r\n          \"None of the owners are valid!\");\r\n        _;\r\n    }\r\n\r\n    modifier onlyOwner() {\r\n        require(msg.sender == owner1() || msg.sender == owner2() || msg.sender == owner3(), \r\n          \"msg.sender is not owner!\");\r\n        _;\r\n    }\r\n\r\n    modifier sufficientBalance() {\r\n        require(loanInfo[msg.sender].borrowAmount <= getBalance(), \r\n          \"Loan amount is larger than available balance!\");\r\n        _;\r\n    }\r\n\r\n    function setOwner(uint8 index, address _owner) public onlyOwner {\r\n        owners[index] = _owner;\r\n    }\r\n\r\n    function initialize(address _owner1) public initializer {\r\n        owners[0] = _owner1;        \r\n    }    \r\n    \r\n    function deposit() public payable {\r\n        emit Deposited(msg.sender, msg.value);\r\n    }\r\n\r\n    // Called by the person borrowing the money\r\n    // Checks that the loan has been approved.\r\n    // Checks that there is sufficient balance.\r\n    function withdraw() public onlyApproved sufficientBalance validOwners {\r\n        LoanInfo storage loan = loanInfo[msg.sender];\r\n        uint256 loanAmount = loan.borrowAmount;\r\n        loan.dateWithdrawn = block.timestamp;\r\n        msg.sender.transfer(loanAmount);\r\n        emit Withdrawn(msg.sender, loanAmount);\r\n    }\r\n\r\n    function getBalance() public view returns (uint256) {\r\n        return address(this).balance;\r\n    }\r\n\r\n    // loanPeriod is in terms of months\r\n    // function is called by the borrower\r\n    function applyLoan(uint256 borrowAmount, uint16 interest, uint16 loanPeriod) public \r\n      noOutstandingLoan validOwners {\r\n        LoanInfo storage localLoanInfo = loanInfo[msg.sender];\r\n        localLoanInfo.borrowAmount = borrowAmount;\r\n        localLoanInfo.interest = interest;\r\n        localLoanInfo.loanPeriod = loanPeriod;\r\n\r\n        // automatic loan approval due to time constraint\r\n        // This shouldn't be automatic\r\n        _approveLoan(owner1(), msg.sender);\r\n    }\r\n\r\n    // Approves loan for the borrower, with the approving officer being msgSender\r\n    function _approveLoan(address msgSender, address borrower) internal {\r\n        LoanInfo storage localLoanInfo = loanInfo[borrower];\r\n        localLoanInfo.approved = true;\r\n        localLoanInfo.approvingOfficer = msgSender;\r\n        emit Approved(borrower);\r\n    }\r\n\r\n    // Called by one of the owners, approves the loan for the specified borrower\r\n    function approveLoan(address borrower) public onlyOwner {\r\n        _approveLoan(msg.sender, borrower);\r\n    }\r\n\r\n    // clears a loan, to be called by one of the owners\r\n    function clearLoan(address borrower) public onlyOwner {\r\n        LoanInfo memory localLoanInfo;\r\n        loanInfo[borrower] = localLoanInfo;\r\n    }\r\n\r\n    // Called by the borrower\r\n    // Ensures that the borrower has an outstanding loan.\r\n    // Amount repaid is in msg.value\r\n    function payLoan() public payable validBorrower {\r\n        LoanInfo storage localLoanInfo = loanInfo[msg.sender];\r\n        localLoanInfo.borrowAmount = localLoanInfo.borrowAmount.sub(msg.value);\r\n        emit Repaid(msg.sender, msg.value);\r\n    }\r\n\r\n    function getLoan(address borrower) public view returns (LoanInfo memory result) {\r\n        result = loanInfo[borrower];\r\n    }\r\n\r\n}",
  "sourcePath": "D:/Blog/NodeApps/mlf-2/contracts/MLF.sol",
  "compiler": {
    "name": "solc",
    "version": "0.5.16+commit.9c3226ce.Emscripten.clang"
  },
  "schemaVersion": "3.3.4",
  "updatedAt": "2021-03-22T12:34:59.499Z",
  "networkType": "ethereum",
  "devdoc": {
    "methods": {}
  },
  "userdoc": {
    "methods": {}
  }
}